:020000040800F2
:100000000000012031090008910800089308000849
:1000100095080008970800089908000800000000EB
:100020000000000000000000000000009B08000825
:100030009D080008000000009F080008A1080008B3
:100040008109000881090008810900088109000868
:1000500081090008A5080008810900088109000835
:100060008109000881090008810900088109000848
:100070008109000881090008810900088109000838
:1000800081090008810900088109000800000000BA
:1000900000000000000000000000000081090008CE
:1000A0008109000881090008810900088109000808
:1000B00081090008810900088109000881090008F8
:1000C00081090008810900088109000881090008E8
:1000D00081090008A9080008BD0800080000000008
:1000E000810900088109000881090008000000005A
:1000F000000000000000000000000000810900086E
:100100000000000081090008810900088109000839
:1001100000000000000000000000000000000000DF
:100120008109000881090008810900088109000887
:10013000810900080000000000000000000000002D
:10014000000000000000000000000000D1080008CE
:100150008109000881090008810900088109000857
:10016000810900088109000800000000000000006B
:10017000000000000000000000000000000000007F
:1001800000000000810900080000000000000000DD
:0401900081090008D9
:1001A00010B5054C237833B9044B13B10448AFF3B1
:1001B00000800123237010BD980100200000000082
:1001C0002C4A000808B5034B1BB103490348AFF3A1
:1001D000008008BD000000009C0100202C4A00089F
:1001E000034613F8012B002AFBD1181A0138704777
:1001F00001F0FF01102A2BDB10F0070F08D010F8D8
:10020000013B013A8B422DD010F0070F42B3F6D1DB
:10021000F0B441EA012141EA014122F007047FF0F4
:1002200000070023F0E80256083C85EA010586EA4B
:10023000010685FA47F5A3FA87F586FA47F6A5FA87
:1002400087F68EB9EED1F0BC01F0FF0102F0070293
:1002500032B110F8013B013A83EA010313B1F8D13E
:100260000020704701387047002D06BF354603381F
:10027000073815F0010F07D1013015F4807F02BF58
:10028000013015F4C03F0130F0BC0138704700BFA9
:1002900053B94AB9002908BF00281CBF4FF0FF31ED
:1002A0004FF0FF3000F070B9ADF1080C6DE904CEED
:1002B00000F006F8DDF804E0DDE9022304B0704741
:1002C0002DE9F047089E0D4604460F46002B4AD103
:1002D0008A42944665D9B2FA82F343B102FA03FC2A
:1002E000C3F120029F4020FA02F217439C404FEADC
:1002F0001C4E1FFA8CF5B7FBFEF1220C0EFB11779A
:1003000042EA074201FB05F090420AD91CEB0202C7
:1003100001F1FF3780F01C81904240F219810239CF
:100320006244121AA4B2B2FBFEF00EFB102244EAA1
:10033000024400FB05F5A5420AD91CEB040400F1B8
:10034000FF3280F00781A54240F204816444023804
:1003500040EA0140641B00211EB1DC400023C6E9D5
:100360000043BDE8F0878B4208D9002E00F0ED80F5
:100370000021C6E900050846BDE8F087B3FA83F11D
:10038000002949D1AB4202D3824200F2F880841A9C
:1003900065EB030201201746002EE2D0C6E90047B4
:1003A000DFE702B9FFDEB2FA82F3002B40F0908063
:1003B0008A1A4FEA1C471FFA8CFE0121B2FBF7F59F
:1003C00007FB1520220C42EA00420EFB05F090428A
:1003D00008D91CEB020205F1FF3802D2904200F26C
:1003E000CB804546121AA4B2B2FBF7F007FB1022ED
:1003F00044EA02440EFB00FEA64508D91CEB0404A7
:1004000000F1FF3202D2A64500F2BB801046A4EBF9
:100410000E0440EA05409FE7C1F120078B4022FA15
:1004200007FC4CEA030C05FA01F420FA07F3FD403F
:100430004FEA1C492343B5FBF9F81FFA8CFE09FB70
:1004400018551C0C44EA054408FB0EF5A54202FAB7
:1004500001F200FA01F00BD91CEB040408F1FF3A99
:1004600080F08880A54240F28580A8F102086444AB
:10047000641B9DB2B4FBF9F309FB134445EA044441
:1004800003FB0EFEA64508D91CEB040403F1FF355F
:100490006CD2A6456AD9023B644443EA0843A3FBF5
:1004A0000295A4EB0E04AC42C846AE4656D353D0D8
:1004B00056B1B0EB080264EB0E0404FA07F7CA4029
:1004C000CC401743C6E9007418460021BDE8F08708
:1004D000C3F1200102FA03FC20FA01F225FA01F12E
:1004E0009D402A434FEA1C471FFA8CFEB1FBF7F0F0
:1004F00007FB1015110C41EA054100FB0EF58D427A
:1005000004FA03F408D91CEB010100F1FF382FD2E3
:100510008D422DD902386144491B92B2B1FBF7F5E7
:1005200007FB151142EA014205FB0EF1914208D981
:100530001CEB020205F1FF3816D2914214D9023D9C
:100540006244521A45EA004138E73146304608E72E
:100550003946E6E61046FBE64845A9D2B9EB020863
:1005600065EB0C0E013BA3E74546EAE72B4694E713
:100570004046D1E7D0467BE7023D624432E7084679
:100580000AE76444023842E7704700BF0020704722
:1005900030B595B0102200210AA803F0BBFD14224B
:1005A000002103A803F0B6FD00211E4B01911A6C37
:1005B00042F080521A641B6C1B4A03F08053019373
:1005C000019B0291136823F4404343F400431360FA
:1005D000136803F440430293029B01244FF48033D9
:1005E000CDE908434FF480020223CDE90E32129385
:1005F000902205230F2508A8CDE91052139301F08E
:10060000ADF8014608B172B6FEE7CDE905000790E6
:1006100003A8CDE9035401F07BFA08B172B6FEE7F6
:1006200015B030BD00380240007000402DE9F041A7
:1006300090B01C22002109A803F06CFD304B314D15
:100640005A6C42F010025A645A6C02F01002029284
:10065000029A1A6B42F001021A631B6B03F001034A
:1006600001930024019B07944FF400734FF002089C
:100670000327072603A92846CDE90338CDE90574E9
:10068000089601F0E5FA4FF48063CDE9033803A939
:1006900001232846CDE90574CDE9073601F0D8FAE3
:1006A000194BD868C0F30220FFF770FFA3F5406331
:1006B00000012022C0B283F825035A604FF416537C
:1006C000CDE909340423CDE90D34CDE90B440F9471
:1006D00004F1804404F5883409A9204601F0F6FBB2
:1006E000236923F490432361636923F02A03636140
:1006F000E36843F40053E36010B0BDE8F08100BF4D
:10070000003802400000024000ED00E02DE9F04317
:1007100091B01C22002109A803F0FCFC2D4B2E4EA9
:100720001A6C42F400321A641A6C02F4003202921B
:10073000029A1A6B42F001021A631B6B03F0010369
:100740000024042501934FF002094FF00308072706
:1007500003A93046CDE90584019B0794CDE90359EF
:10076000089701F075FA0823CDE9033903A901239D
:100770003046CDE90584CDE9073701F069FA174B1A
:10078000D868C0F30220FFF701FFA3F54063A8403B
:100790004022C0B283F826035A604FF41653CDE9C5
:1007A0000934CDE90B44CDE90D540F940C4C09A943
:1007B000204601F08BFB236923F490432361636996
:1007C00023F02A036361E36843F40053E36011B04C
:1007D000BDE8F083003802400000024000ED00E078
:1007E000004400401FB500F0F1F8FFF7D1FE144BB4
:1007F00000220192196B41F004011963196B01F099
:100800000401019101990292196B41F08001196371
:10081000196B01F080010291029903921A6B42F068
:1008200001021A631B6B03F001030393039BFFF7A1
:10083000FDFEFFF76BFF03F011FA03F0CBF9FCE7C5
:100840000038024072B6FEE707B5104B0022009256
:10085000596C41F480415964596C01F48041009114
:1008600000990192196C41F0805119641B6C03F0DE
:100870008053019311460520019B00F0F9F80520F3
:1008800003B05DF804EB00F025B900BF003802406A
:10089000FEE7FEE7FEE7FEE7FEE7704770477047BA
:1008A00000F0AEB8704700000348C3689B0601D54E
:1008B00002F0ECBF704700BF001001400348C3685E
:1008C0009B0601D502F0E2BF704700BF0044004024
:1008D000014800F0D5BB00BFD41600200B4A1168B8
:1008E00010B5034609B90A491160106809490A4C54
:1008F0000344091B8B4206D903F014FC0C2303604C
:100900004FF0FF3010BD1360FCE700BFB4010020C2
:10091000481F00200000012000040000034AD2F814
:10092000883043F47003C2F88830704700ED00E06F
:10093000DFF834D00D480E490E4A002302E0D458A7
:10094000C4500433C4188C42F9D30B4A0B4C002317
:1009500001E013600432A242FBD3FFF7DFFF03F094
:10096000E7FBFFF73FFF7047000001200000002079
:1009700098010020884C000898010020481F0020A2
:10098000FEE7000038B50E4B1A784FF47A73B3FBCC
:10099000F2F30C4A05461068B0FBF3F000F0A8F83B
:1009A000044658B90F2D09D8024629464FF0FF30AA
:1009B00000F05EF8044B20461D6038BD0120FCE7C6
:1009C00004000020000000200800002008B50B4BA8
:1009D0001A6842F400721A601A6842F480621A605F
:1009E0001A6842F480721A60032000F02FF80F207A
:1009F000FFF7C8FFFFF728FF002008BD003C0240BA
:100A0000034A044B11681B780B441360704700BF06
:100A1000B801002004000020014B1868704700BF97
:100A2000B801002038B50446FFF7F6FF631C1CBF71
:100A3000054B1B78054618BFE418FFF7EDFF431B75
:100A4000A342FAD338BD00BF040000200749CA689A
:100A500022F4E0620302120403F4E063120C134375
:100A600043F0BF6343F40033CB60704700ED00E018
:100A7000164B30B5DC68C4F30224C4F10703251D0E
:100A8000042B28BF0423062D4FF0FF358CBF033CF9
:100A9000002405FA03F321EA0303A54022EA050234
:100AA000A340002843EA0203ACBF00F16040084ABB
:100AB0004FEA0313B8BF00F00F00DBB2AABF00F586
:100AC0006140135480F8003330BD00BF00ED00E0FA
:100AD00014ED00E0002807DB4109044A00F01F0084
:100AE0000123834042F82130704700BF00E100E05D
:100AF0000138B0F1807F0BD24FF0E023054A5861F6
:100B0000F02182F823100020072298611A617047B3
:100B10000120704700ED00E02DE9F74FDFF88491E8
:100B20005E4A00230D6801249C4004EA050CAC4396
:100B300040F0A5804D6805F003044FEA4308032602
:100B4000671E06FA08F6012F6FEA060634D8876892
:100B500007EA060ECF6807FA08F747EA0E0787602C
:100B6000476827EA0C0EC5F300179F4047EA0E07B7
:100B70004760C76807EA060E8F6807FA08F747EA72
:100B80000E07022CC76019D14FEAD30A00EB8A0A7C
:100B900003F0070BDAF820704FEA8B0B4FF00F0EC3
:100BA0000EFA0BFE27EA0E0E0F6907FA0BF747EA5B
:100BB0000E07CAF8207001E0032CDAD1076804FAA6
:100BC00008F437403C4315F4403F046057D04FF0E1
:100BD000000ACDF804A0D9F84460314C46F48046B0
:100BE000C9F84460D9F8446006F480460196019E35
:100BF00023F0030606F1804606F59C3603F0030E4B
:100C0000D6F808804FEA8E0E0F2707FA0EF7A0429B
:100C100028EA07073AD004F58064A04238D004F5EA
:100C20008064A04236D004F58064A04234D004F53C
:100C30008064A0420CBF0424072404FA0EF43C4351
:100C4000B46094686FEA0C06EF0254BF34404CEA7B
:100C500004049460D468AF0254BF34404CEA0404E6
:100C6000D4605468AF0354BF34404CEA0404546069
:100C70001468ED0354BF34404CEA0404146001339B
:100C8000102B7FF44FAF03B0BDE8F08F5446D4E78C
:100C90000124D2E70224D0E70324CEE7003C014040
:100CA0000000024000380240F0B504468BB060B34B
:100CB00090F8BD34056803F0FF021BB980F8BC242E
:100CC00003F0CCF8032384F8BD34EB6B254613F412
:100CD000807355F8100B08BF236101F051FA0FCD56
:100CE0006E460FC60FCD0FC695E8030086E80300D9
:100CF0002546271D97E80E0055F8100B01F08AF9DC
:100D0000064620B1022384F8BD3401254EE0014699
:100D1000206801F03BFA3046D4F804C024264FF096
:100D2000010E0146C2B2944500F101001CD8002317
:100D300024261946D8B2844503F1010322D80FCDE9
:100D40006E460FC60FCD0FC695E8030086E8030078
:100D500097E80E00206801F09BFA01230546F0B1E8
:100D6000022284F8BD24D0E706FB0243C3E9121136
:100D700083F83DE083F83C20A3F8442083F840103A
:100D80005965CFE706FB0042C2E9A21182F87D1245
:100D900082F87C0282F88012C2F89412CAE784F8C2
:100DA0003800206884F8BD3401F018FE28460BB0E6
:100DB000F0BD10B50446006894F8BC34012B15D082
:100DC000012384F8BC34A36A012B06D1A369012B4B
:100DD0001EBF836B43F48033836301F0CBF920683B
:100DE00001F0EEFD002084F8BC0410BD0220FCE7F9
:100DF00010B590F8BC24012A04460BD0012280F8DB
:100E0000BC2480F83810006801F0CAFD002084F886
:100E1000BC0410BD0220FCE770B501F00F0606EB24
:100E2000C60411F0800F05464FEA84044FF02400F9
:100E30001FD000FB065004F13C010124294480F836
:100E40003D40CA604A780E700B7102B10E81022BD0
:100E500004BF00234B7195F8BC34012B12D0012341
:100E6000286885F8BC3401F0D6FA002085F8BC0467
:100E700070BD00FB065004F51F710024294480F862
:100E80007D42DEE70220F3E710B5044601F00F00D3
:100E900000EBC00311F0800F4FEA83034FF02402F0
:100EA00016D002FB004203F13C010123214482F8E9
:100EB0003D30087094F8BC34012B12D00123206817
:100EC00084F8BC3401F0E6FA002084F8BC0410BDBC
:100ED00002FB004203F51F710023214482F87D329A
:100EE000E7E70220F3E738B501F00F05242404FBFF
:100EF000050104FB050401F51F71C4F894320023B9
:100F0000C4F88C22C4F89C3284F87D3284F87C5278
:100F100003690068012B08BFC4F89022DAB21DB93A
:100F200001F00EFB002038BD01F0DCFBFAE701F018
:100F30000F01242303FB0100D0F89C02704738B551
:100F400001F00F05242404FB050104FB05043C31DA
:100F500063650023E3650123E26484F83D3084F88F
:100F60003C5003690068012B08BF2265DAB21DB945
:100F700001F0E6FA002038BD01F0B4FBFAE738B51D
:100F8000436801F00F059D4204462ED811F0800FF2
:100F90004FF024021FD002FB050302FB05020121D2
:100FA0003C3382F83D1001229A701D7094F8BC14F5
:100FB00091421CD0206884F8BC24194601F09CFCA6
:100FC0002DB9217C206804F2C44201F057FD0020B5
:100FD00084F8BC0438BD02FB010302FB01010022BE
:100FE00003F51F7381F87D22DDE70120F2E702207F
:100FF000F0E738B5436801F00F029A4204462AD858
:1010000002EBC20311F0800F4FEA83034FF024007C
:1010100018D000FB024003F13C010123214480F879
:101020003D3000258D700A7094F8BC34012B14D02B
:101030000123206884F8BC3401F089FC84F8BC5496
:10104000284638BD00FB024003F51F7100232144F0
:1010500080F87D32E5E70120F3E70220F1E701F0B7
:101060000F0303EBC3030A064FEA83034CBF03F1EC
:101070003C0103F51F710144006801F0DDBA000076
:101080002DE9F04F066889B00446304601F0E2FCD5
:101090000390002840F05781206801F0ADFC002843
:1010A00000F05181D6F808382068C3F30D23C4F846
:1010B000FC3401F0A1FC870748BF2268206842BFCA
:1010C000536903F00203536101F096FCC00606F574
:1010D00000652CD52268936923F010039361D6F83C
:1010E0002080C8F34343022B08F00F0740F02E8105
:1010F00047F6F07318EA030F14D0242303FB0747C5
:10110000C8F30A19D7F88C124A46304601F0D4FBCE
:10111000D7F88C324B44C7F88C32D7F89C324B440A
:10112000C7F89C322268936943F0100393612068EA
:1011300001F062FC010300F11B81206801F05CFCFE
:1011400042030DD5206801F063FC2746049006F5A4
:10115000106A4FF00009049B2068002B40F0D081FA
:10116000206801F049FC002813DA6B6823F00103C2
:101170006B6094F8F434012B40F06B82002184F80A
:10118000F414204600F0E8FA2268536903F00043A3
:101190005361206801F030FC01050AD5AB68DA071D
:1011A00002D5204602F0CAFE2268536903F40063A8
:1011B0005361206801F020FCC30433D56B682068BC
:1011C00023F001036B60102101F010F806F51063A5
:1011D0004FF67F3162680398824200F24382EB69E6
:1011E00043F00113EB61236B002B00F05382D5F821
:1011F000843043F00B03C5F884306B6C43F00B0371
:101200006B64D6F80038217C206823F4FE63C6F8AE
:10121000003804F2C44201F031FC2268536903F43F
:1012200080535361206801F0E7FB870416D52068DE
:1012300001F014FC206801F0E3F8E060276800F09A
:1012400001FD227B0146384600F024FF204602F0D3
:1012500062FE2268536903F400535361206801F071
:10126000CBFB000707D5204602F051FE22685369E8
:1012700003F008035361206801F0BEFB010600F192
:101280001482206801F0B8FBC2020CD5A04606F516
:10129000126901276368BB4200F220822268536909
:1012A00003F480135361206801F0A6FB83022DD55F
:1012B000D4F804E0234606F5326001218E4520D99A
:1012C00093F8A4C20268BCF1010F40F01D82002A0D
:1012D00080F21A82D4F8FC7402F4803207F001071D
:1012E000BA4240F0118283F8A3C2B26942F0800290
:1012F000B2617269170600F107826B6843F40073EC
:101300006B602268536903F400135361206801F095
:1013100073FB410007D5204602F034FE2268536972
:1013200003F080435361206801F066FB42070AD551
:1013300023685D686B0702D5204602F027FE22680D
:1013400053682B43536009B0BDE8F08F062B7FF440
:10135000E9AE082204F2C441304601F0ADFA24237C
:1013600003FB0747C8F30A18D7F89C324344D7E673
:10137000206801F045FB06F530680490A24600277E
:10138000049B2068002B3FF4D8AE049BDB0775D587
:101390005FFA87FB594601F043FB10F0010F8146CD
:1013A0001CD0206821690123C8F8083000F530639B
:1013B00003EB47130129D0F840C09A6840F08B80B6
:1013C000110707D5A5498C4508D9100406D54FF457
:1013D000004202E091065AD520229A6019F0080FC7
:1013E00021D00823C8F8083023689C481A6C03F5FC
:1013F000306303EB47138242996804D9090444BF60
:101400004FF4004199602046059202F069FD934B2C
:10141000059A9A4207D92169012904D1206804F26A
:10142000C44201F02BFB19F0100F1CBF1023C8F8A9
:10143000083019F0020F14D073691A0642BF6B68A6
:1014400043F480636B609AF87F32012B06D100234E
:101450008AF87F325946204602F08CFD0223C8F8F4
:10146000083019F0200F1CBF2023C8F8083019F4E9
:10147000005F1CBF4FF40053C8F80830049B5B08A2
:101480000137049308F120080AF1240A78E712F0E2
:10149000280FA3D171498C4501D9120497D41A6938
:1014A000DAF89832C2F312029B1ACAF89C326FB96A
:1014B000D4F894222AB904F2C442012101F0DEFAE0
:1014C00004E0D4F88C221A44C4F88C2259462046F1
:1014D00002F00CFD82E762498C4507D111043FF50B
:1014E00076AF9006F2D520229A60EFE7002FEDD17B
:1014F000D4F89432002BE9D104F2C4423946DDE736
:10150000049BDB0740F19C805FFA89FB594601F0A0
:1015100090FA10F0010F804620D001216B6B09F08A
:101520000F0201FA02F223EA02036B630B46CAF8C8
:101530000810216999420DD1D7E912231344FB64A5
:10154000B9F1000F06D1636D23B9206804F2C442DB
:1015500001F094FA5946204602F0D1FC18F0080F29
:101560001CBF0823CAF8083018F0100F1CBF102346
:10157000CAF8083018F0400F1CBF4023CAF80830E2
:1015800018F0020F12D04946304600F02FFE97F8AF
:101590003F30012B07D14FF0000387F83F30594609
:1015A000204602F0EBFC0223CAF8083023680593BA
:1015B00018F0800F44D0FA6D7B6D9A4240D89B1A88
:1015C000BA6C934228BF134603339B080693059BCE
:1015D00003F5106303EB49130793079B069899697A
:1015E000FA6D7B6D89B2814228D39A420CD3059B58
:1015F00009F00F01D3F83428012000FA01F122EAA2
:101600000102C3F834281BE0A3EB0208BB6C059869
:10161000984528BF984608F103039B080693237C4E
:101620000093F96C1FFA88F35A4601F047F8FB6CF7
:101630004344FB64FB6D4344FB65CEE79A42D6D23C
:10164000049B5B0809F10109049324370AF1200A7D
:1016500081E5204602F08AFC96E500BF0A30544F2F
:101660000A31544F99601A6822F400121A60C3F8C4
:101670000812D3F8002222F40012C3F80022D3F893
:10168000002242F00062C3F80022039A0132039262
:1016900020339FE56B6943F4005343F02B036B61E8
:1016A0002B6943F00B032B61ABE5B36923F0800397
:1016B000B361012704F27F284FF024096368BB421D
:1016C0007FF6DFAD09FB07F318F80330012B03D1D8
:1016D000F9B22046FFF7C3FC0137EFE798F8643012
:1016E000D9F80020012B09D1002A07DA67F07F0121
:1016F00088F86330C9B22046FFF7B1FC013708F122
:10170000240809F12009C5E5013124332030D5E54D
:10171000006870B51204446A19B92243826200203D
:1017200070BD836A4D1E04EB134400235E1CDBB2C4
:101730009D4205D83F3100EB810022434260EEE735
:10174000403300EB83035B6804EB13443346EDE75F
:101750000368002059627047704700002DE9F3418B
:10176000044640B30368DD0710D4236898075BD4B0
:1017700023681A0700F19D8023685B0700F1BD8094
:10178000A069002840F0248100202CE08D4B9A684D
:1017900002F00C02042A07D09A6802F00C02082A10
:1017A0000BD15B68590208D5864B1B689A03DCD5C0
:1017B0006368002BD9D1012015E06368814DB3F532
:1017C000803F13D12B6843F480332B60FFF724F95B
:1017D0007C4E054633689B03C7D4FFF71DF9401BB9
:1017E0006428F7D9032002B0BDE8F081B3F5A02F3B
:1017F00004D12B6843F480232B60E3E72A6822F4AA
:1018000080322A602A6822F480222A60002BDDD1EF
:10181000FFF702F906462B689F03A6D5FFF7FCF8F1
:10182000801B6428F7D9DDE7664B9A6812F00C0F2D
:1018300007D09A6802F00C02082A11D15B685E0298
:101840000ED4604A13689D0702D5E368012BB2D11C
:101850001368216923F0F80343EAC103136087E7A3
:10186000E268594BB2B101221A60FFF7D5F8554D25
:1018700006462B68980707D52B68226923F0F803E2
:1018800043EAC2032B6073E7FFF7C6F8801B022808
:10189000EFD9A7E71A60FFF7BFF84A4E054633684D
:1018A00099077FF565AFFFF7B7F8401B0228F6D917
:1018B00098E76269444B82B10122C3F8802EFFF79A
:1018C000ABF8404E0546736F9F073FF555AFFFF7E6
:1018D000A3F8401B0228F6D984E7C3F8802EFFF74F
:1018E0009BF8384E0546736F98077FF545AFFFF7B5
:1018F00093F8401B0228F6D974E7324B1A6C12F0A9
:10190000805228D101921A6C42F080521A641B6CEA
:1019100003F080530193019B01272C4D2B68D905BF
:101920001BD5A368274D012B27D12B6F43F0010353
:101930002B67FFF771F8234E054641F28838336F65
:101940009B0739D5002F3FF41BAF1E4A136C23F0C1
:101950008053136414E70027DFE72B6843F4807398
:101960002B60FFF759F806462B68DA05D9D4FFF744
:1019700053F8801B0228F7D934E7052B04D12B6FCD
:1019800043F004032B67D0E72A6F22F001022A6795
:101990002A6F22F004022A67002BCAD1FFF73CF815
:1019A00041F2883806462B6F9807CBD5FFF734F8FD
:1019B000801B4045F7D915E7FFF72EF8401B40453F
:1019C000BDD90FE7003802400000474200700040D8
:1019D000364DAB6803F00C03082B3DD0344B00228E
:1019E00002281A662BD1FFF717F806462B689901D3
:1019F0001FD4D4E907321343626A43EA8213E26ACE
:101A000043EA0263A26A5208013A43EA02436B6066
:101A1000274B264D01221A66FEF7FEFF04462B686F
:101A20009A013FF5B1AEFEF7F7FF001B0228F6D989
:101A3000D8E6FEF7F1FF801B0228D7D9D2E6FEF7E1
:101A4000EBFF04462B689B017FF59EAEFEF7E4FF9B
:101A5000001B0228F6D9C5E601283FF4C4AE6B6826
:101A6000E26903F4800191427FF4A5AE216A03F09C
:101A70003F028A427FF49FAE616A47F6C0721A4005
:101A8000B2EB811F7FF497AEA26A520803F4403193
:101A9000013AB1EB024F7FF48EAEE26A03F070635D
:101AA000B3EB026F3FF470AE85E600BF0038024032
:101AB00000004742134908B58B6803F00C03042B60
:101AC0001CD0082B1CD14A684B68496813F480036A
:101AD00014BF0D480D48C1F3881118BF002302F050
:101AE0003F02A1FB0001FEF7D3FB064B5B68C3F38B
:101AF000014301335B00B0FBF3F008BD0248FCE793
:101B00000248FAE70038024040787D010024F400E2
:101B10002DE9F0410D46044610B90120BDE8F081E1
:101B2000434B1A6802F007028A4228D321688F07C4
:101B30002DD4C80740D43E4B1A6802F00702AA42CF
:101B400065D8226851076BD4130707D5394A216934
:101B5000936823F4604343EAC1039360FFF7AAFF4D
:101B6000344B354A9B68C3F30313D35CD840334BE3
:101B70001860334B1868FEF705FF0020CEE7CAB2A5
:101B80001A701B6803F007038B42C6D1CEE7294BBE
:101B900011F0040F1EBF9A6842F4E0529A600E07DB
:101BA00042BF9A6842F460429A609A68A06822F044
:101BB000F00202439A60BCE762681E4B012A1CD106
:101BC0001B6813F4003FA8D01A4EB36823F0030338
:101BD0001343B360FEF720FF41F288380746B3682D
:101BE000626803F00C03B3EB820FA4D0FEF714FF7E
:101BF000C01B4045F3D9032090E7911E01291B68C3
:101C000002D813F0007FDEE713F0020FDBE7EAB241
:101C10001A701B6803F00703AB427FF47EAF90E7B6
:101C20000449E0688B6823F4E05303438B608BE73F
:101C3000003C024000380240444A000800000020F6
:101C400008000020014B1868704700BF000000200A
:101C50002DE9F04702460D6895FAA5F44FF0010E04
:101C6000B4FA84F403264FF00F0C35FA04F001D1D6
:101C7000BDE8F0870EFA04F32B406DD04868471E8C
:101C8000012F1ED8D2F8088093FAA3F7B7FA87F786
:101C900093FAA3F97F0006FA07F728EA0708B9FACA
:101CA00089F98F684FEA490907FA09F748EA0707EF
:101CB0009760576827EA0308CF685F4348EA070739
:101CC0005760D2F80C8093FAA3F7B7FA87F793FA24
:101CD000A3F97F0006FA07F728EA0708B9FA89F995
:101CE0000F694FEA490907FA09F748EA0707022886
:101CF000D7601DD193FAA3F7B7FA87F7072FD1F86A
:101D000014902BDCD2F820A093FAA3F8B8FA88F844
:101D100093FAA3F7B7FA87F74FEA88080CFA08F89E
:101D2000BF002AEA080A09FA07F74AEA0707176212
:101D3000D2F8008093FAA3F7B7FA87F793FAA3F3E0
:101D4000B3FA83F37F0006FA07F75B0028EA070877
:101D5000984048EA00001060013486E7D2F82480F9
:101D60001F0A97FAA7FABAFA8AFA97FAA7F7B7FA00
:101D700087F74FEA8A0ABF000CFA0AFA28EA0A082B
:101D800009FA07F948EA09075762D1E7034B044A01
:101D90009B68C3F30313D35CD840704700380240FC
:101DA000444A0008034B044A9B68C3F38223D35C74
:101DB000D840704700380240544A0008034B044A98
:101DC0009B68C3F34233D35CD8407047003802406D
:101DD000544A00080E4A0F49536813F4800F0E4B03
:101DE00018BF0B46082810D150685168526800F09F
:101DF0003F00B3FBF0F0C1F388135843C2F3014333
:101E000001335B00B0FBF3F070470020704700BF68
:101E10000038024040787D010024F400064B9868A9
:101E200000F00C00042803D0082803D1FFF7D2BF2C
:101E300002487047024870470038024040787D01F0
:101E40000024F40010B50446FFF7E8FF2060FFF718
:101E50009DFF60600146FFF7A5FFA0600846FFF701
:101E6000ADFFE06010BD0000154B98420AD103F5AC
:101E700094335A6A42F010025A625A6A22F01002EF
:101E80005A620CE00F4B98420BD103F5FA331A6AF1
:101E900042F400321A621A6A22F400321A620020F6
:101EA0007047094B984209D103F592335A6A42F0C0
:101EB00020025A625A6A22F02002E1E701207047AC
:101EC00000100140004400400014014030B5C368D8
:101ED0009B0485B004460D4602D5012005B030BDF7
:101EE0004B68C968C2680B4329690B43A96922F48E
:101EF00016420B4322F00C021343C3600369AA6825
:101F000023F440531343036143696A6923F4407324
:101F1000134343616846FFF795FF224B9C4228D14B
:101F200003980028D9D02B68002BD6D0AA69192194
:101F3000B2F5004FA0FB010124D1DA184FF00005E3
:101F400045EB0503FEF7A4F96422B0FBF2F102FBB6
:101F50001103DB003233B3FBF2F303F007025B0043
:101F600002EB011203F4F87313449BB2A360002048
:101F7000B4E70D4B9C4201D10298D2E70B4B9C4237
:101F8000ABD1CDE79A009B0FFEF782F96422B0FB3C
:101F9000F2F102FB11031B013233B3FBF2F303EB4B
:101FA0000113E2E70010014000440040001401402A
:101FB00000234FF41652C0E900230C22C0E902337B
:101FC000C0E904238361704782B00023104A019363
:101FD000019B01330193019B934216D80369002BA7
:101FE000F6DA002301930369094A43F00103036110
:101FF000019B01330193019B934206D8036913F0BF
:102000000103F5D1184602B070470320FBE700BF7B
:10201000400D030084B038B505AD85E80E000A9B7D
:10202000012B044625D1836B23F480338363C3687B
:1020300023F4840323F04003C360C36823F44013F4
:10204000C360119B012B02BFC36843F48013C360BC
:10205000FFF7BAFF089B012B07D1A36843F00603E3
:10206000A360A36843F02003A360BDE8384004B038
:102070007047C36843F04003C360FFF7A5FF0E9BA2
:1020800023B9A36B43F48033A363E3E7A36B23F487
:102090008033F9E7022A4AD1274B284A0B4493425E
:1020A00039D9274B274A0B44934236D9264AA1F502
:1020B0007403A3F51053934231D9244AA1F18373D9
:1020C000A3F5E74393422CD3214B224A0B4493427E
:1020D00029D9214B214A0B44934226D3204B214A34
:1020E0000B44934223D3204AA1F1B773A3F558536D
:1020F00093421ED31D4B1E4A0B44934234BF072309
:102100000623C26822F47052C260C26842EA832386
:10211000C360002070470F23F3E70E23F1E70D2380
:10212000EFE70C23EDE70B23EBE70A23E9E70923AD
:10213000E7E70823E5E700BF405327FFFF340C0023
:10214000401E1BFF3F420F007F4F120020D613009E
:1021500060B6E5FE5FE3160000D3CEFE40771B00BD
:10216000C05BB3FEC091210020753800E05459FED9
:10217000E09C4100836843F00103836000207047C6
:10218000836823F0010383600020704738B5C3687B
:10219000012923F0C0430546C36010D1C36843F052
:1021A0000053C36000240120FEF73CFC6B69D90793
:1021B00004F1010415D4322CF5D1012038BD0029D9
:1021C000FBD1C36843F08043C3600C460120FEF797
:1021D00029FC6B69DA0704F1010402D5322CF5D130
:1021E000EBE7A4F1320358425841E7E782B00023FD
:1021F000104A0193019B01330193019B934216D82E
:102200000369002BF6DA8901002341F02001094A15
:1022100001930161019B01330193019B934206D815
:10222000036913F02003F5D1184602B0704703206C
:10223000FBE700BF400D030082B000230F4A01936B
:10224000019B01330193019B934214D80369002B36
:10225000F6DA00230193094A10230361019B01333D
:102260000193019B934206D8036913F01003F5D143
:10227000184602B070470320FBE700BF400D030083
:10228000D0F800381943C0F800180020704700004B
:1022900084B02DE9F843044609A880E80E00139D98
:1022A00000230E46194603F1400204EB820201337B
:1022B0000F2B5160F7D104F50067002D6CD17B68BE
:1022C00043F002037B60A36B43F40013A363A36B8F
:1022D00023F40023A363A36B23F48023A3630023CD
:1022E000C4F8003ED4F80038C4F800380E9B012B27
:1022F0005CD10B99002957D12046FFF7C1FF10216F
:102300002046FFF773FF01462046FFF795FF08437D
:10231000C0B2002300383B6118BF01207B6104F587
:102320001062FB6119464FF0904C4FF0006E4FF673
:102330007F38B3423CD1002204F5306311464FF0A0
:10234000904C4FF0006E4FF67F38B24243D13B695C
:1023500023F480733B610023A3616FF080436361CA
:102360000C9B1BB9A36943F01003A361A269234B23
:102370001343A3610F9B1BB1A36943F00803A3613F
:10238000012D01BFA36943F0804343F00403A3611F
:10239000BDE8F84304B07047A36B23F40013A363B4
:1023A000A36B43F4002399E71946A5E70321A3E7AC
:1023B000D2F80090B9F1000F0BDA3BB9C2F800E097
:1023C00011610133C2F808802032B2E7C2F800C0C0
:1023D000F6E71160F4E7D3F80090B9F1000F0BDADB
:1023E0003AB9C3F800E019610132C3F8088020331C
:1023F000ABE7C3F800C0F6E71960F4E700383C80AB
:10240000D0F8083813F0060004D013F0020F14BF00
:1024100002200F20704730B50C78012204F00F0520
:10242000AA404D78012D00F5006300EB441019D14E
:10243000DD692A43DA61D0F800391A0410D4CA6879
:10244000D0F80059C2F30A030A792B4343EA8243C6
:1024500043EA845343F0805343F40043C0F8003907
:10246000002030BDDC6944EA0242DA61D0F8003B6A
:102470001B04F5D4CB68D0F8002BC3F30A03134335
:102480000A7943EA824343F0805343F40043C0F89F
:10249000003BE5E710B50A784978012900EB4213C3
:1024A00000F5006002F00F0222D1D3F800190029D4
:1024B0000BDAD3F8001941F00061C3F80019D3F822
:1024C000001941F08041C3F80019C46B012101FAE1
:1024D00002F224EA0204C463C16921EA0202C26171
:1024E000D3F80019144A0A40C3F80029002010BD8F
:1024F000D3F8001B00290BDAD3F8001B41F0006170
:10250000C3F8001BD3F8001B41F08041C3F8001B47
:10251000C46B4FF4803101FA02F224EA0204C4636E
:10252000C16921EA0202C261D3F8001B034A0A40D2
:10253000C3F8002BDAE700BF007833EC0078F3EF44
:102540004B78DFF8F0C0F0B50E788D69384F012B6D
:1025500000EB461446D104F51063BDB91D693D403A
:102560001D611D6945F400251D611D6905EA0C0505
:10257000012A1D6123D14A6902B15A61D4F8003998
:1025800043F00443C4F800390020F0BDD3F810E054
:102590000EEA0C0CC3F810C0D3F810C00CEA070701
:1025A0001F61CF68AF421D6938BF8F6145F40025B8
:1025B0001D618D691F69C5F312053D43D8E7D4F845
:1025C000003943F00443C4F800398B69002BDBD099
:1025D000D0F8342806F00F060123B3401343C0F8A7
:1025E0003438D1E7D4F8100B00EA0C00C4F8100B13
:1025F000D4F8100B384004F530631861C86805B191
:1026000088611D69C86145F400251D611D69C0F31D
:1026100012002843012A186102D10A6902B15A61E5
:10262000D4F8003B43F00443C4F8003BACE700BFE0
:10263000FFFF07E00000F8FF82B000234A78019313
:102640000B78012A4FEA43131ED100F51060C11820
:10265000C258002A02DB002002B07047C25842F084
:102660000062C250C25842F08042C25042F2107220
:10267000019B01330193019B934201D90120EBE7B8
:102680000B68002BF4DBE6E700F53060C118C25898
:10269000002AE0DAC25842F00062C250C25842F04A
:1026A0008042C25042F21072019B01330193019BA0
:1026B0009342E3D80B68002BF6DBCCE710B59DF80E
:1026C000084044B9033301329B0800EB023001EBB0
:1026D00083038B4201D1002010BD51F8042B02600E
:1026E000F7E700002DE9F3414D788B690F79DFF8AA
:1026F000BCC1DFF8BCE116460A78012D00EB42149C
:1027000040F08B8004F51065D5F810806BBB08EAAB
:102710000C0CC5F810C0D5F810C04CF4002CC5F84E
:1027200010C0D5F810C00CEA0E0CC5F810C0012E70
:102730004CD14B6903B16B61012F0CD1D0F8083833
:1027400013F4807FD4F800390CBF43F0005343F0FA
:102750008053C4F80039D4F8003943F00443C4F876
:102760000039002002B0BDE8F08108EA0E0EC5F87D
:1027700010E0D5F810E00EEA0C0CC5F810C0D1F846
:102780000CC0D5F810800CEB030E0EF1FF3EBEFB23
:10279000FCFEDFF820C10CEACE4C4CEA080CC5F870
:1027A00010C0D5F810E0C3F3120C4CEA0E0C012F48
:1027B000C5F810C0BBD1D5F810C02CF0C04CC5F87E
:1027C00010C0D5F810C04CF0005CAEE7D4F800594A
:1027D000012F45F00445C4F800590BD0002BC0D0A0
:1027E000D0F8341802F00F02012393400B43C0F8D5
:1027F0003438B6E7D0F8085815F4807FD4F800597B
:102800000CBF45F0005545F08055C4F800590096BE
:1028100009699BB2FFF752FFA3E7D4F8105B05EA02
:102820000E05C4F8105BD4F8105B05EA0C0504F53E
:1028300030621561CD681BBB1369C5F312051D43DA
:102840001561136943F400231361012E02D10B6952
:1028500003B15361012F0CD1D0F8083813F4807FF5
:10286000D4F8003B0CBF43F0005343F08053C4F84E
:10287000003BD4F8003B43F00443C4F8003B70E74E
:102880002B44DFF830C0D2F810E0013BB3FBF5F386
:102890009BB25D430CEAC34343EA0E03CD6113616F
:1028A0001369C5F312051D431561CEE7FFFF07E06D
:1028B0000000F8FF0000F81F70B50023940800F531
:1028C000805502F00302A34211D301EB840162B1EF
:1028D00000F5805000230468D80024FA00F0C854A2
:1028E000013398B28242F7D11144084670BD2E6878
:1028F00041F823600133E6E74A780B78012A00EBC0
:10290000431012D1D0F80029002A06DB2BB1D0F8F1
:10291000003923F08043C0F80039D0F8003943F47F
:102920000013C0F8003900207047D0F8002B002AAF
:1029300006DB2BB1D0F8003B23F08043C0F8003B0E
:10294000D0F8003B43F40013C0F8003BEBE70B78F2
:102950004A7800EB43100B79012AA3F10203DBB2A2
:102960000FD1D0F80029012B22F40012C0F8002961
:1029700005D8D0F8003943F08053C0F80039002062
:102980007047D0F8002B22F40012012BC0F8002B66
:102990009EBFD0F8003B43F08053C0F8003BEEE709
:1029A000D0F8003823F4FE63C0F80038D0F80038BF
:1029B000090101F4FE611943C0F8001800207047B6
:1029C000D0F8003E23F00303C0F8003ED0F80438EE
:1029D00023F00203C0F8043800207047D0F8003E0E
:1029E00023F00303C0F8003ED0F8043843F002039C
:1029F000C0F8043800207047426980691040704771
:102A0000D0F8183800F50060C0691840000C704715
:102A1000D0F8183800F50060C069184080B27047DF
:102A200000EB411100F50060D1F8082B406910401F
:102A30007047D0F81028D0F8343800EB411001F07E
:102A40000F01CB4000F51060DB018068DBB213435F
:102A500018407047406900F001007047D0F8003915
:102A600023F4FF6323F00703C0F80039D0F80438DB
:102A700043F48073C0F804380020704730B5056C0B
:102A8000104CA54200F5306303D9D0F8004B002C60
:102A900016DB00241C611C6944F400241C611C69C1
:102AA00044F018041C611C69012944F0C0441C61F5
:102AB00001BF5A61D0F8003B43F08023C0F8003BCF
:102AC000002030BD0A30544FD0F8D43200EB8300E0
:102AD00010B5D0F8C04284B1D0F8C4325BB194F8DC
:102AE0000002FF2807D09B6894F8012221469847EE
:102AF000FF2384F80032002000E0032010BD000016
:102B00000A230380004870478800002070B58221A6
:102B100006460F4800F093FB012105460C4800F0E3
:102B20008EFB812104460A4800F089FB0DB110227A
:102B3000AA711CB1402222710022627118B1402298
:102B400002710022427143230148338070BD00BFEF
:102B500044000020FFF7DABF70B5822106460F4817
:102B600000F06DFB012105460C4800F068FB812157
:102B700004460A4800F063FB0DB11022AA711CB193
:102B8000002222710222627118B100220271022217
:102B9000427143230148338070BD00BF44000020D0
:102BA00038B5D0F8D432B033044650F823508DB144
:102BB00001F031FAD4F8D432C5F80C0204EB8304E6
:102BC000D5F80402D4F8C43205F50371DB689847E0
:102BD000002038BD0320FCE7F8B5D0F8D462D0F867
:102BE000C87200EB86060A46D6F8C05235B31424E4
:102BF00001F00F0C04FB0C039C6984B14FF0240E10
:102C00000EFB0C77BF6CB4FBF7FC07FB1C4434B91C
:102C10009C612246234601F04AFA20460DE0D6F890
:102C2000C4321C690027C5F81472002CF5D0D5F801
:102C3000080205F50471A0473846F8BD0320FCE7FB
:102C4000D0F8D4322DE9F34100EB83034FF00008B4
:102C5000D3F8C0728DF8058005460E46ADF80680A3
:102C6000002F6ED00A7812F060042ED0202C64D190
:102C7000CC8891F801C00CB3120613D5D3F8C43236
:102C8000224639469B6860469847F288072A28BF43
:102C900007223946284600F040FD4446204602B04F
:102CA000BDE8F081402C28BF402487F800C287F897
:102CB00001422246394600F045FDEEE7D3F8C43222
:102CC00022469B6860469847E8E74F780B2F34D838
:102CD00001A353F827F000BF092D00089D2C000820
:102CE0003B2D00083B2D00083B2D00083B2D000824
:102CF0003B2D00083B2D00083B2D00083B2D000814
:102D00001F2D0008332D000890F89C32032B14D19E
:102D100002220DF1060100F000FD3C46BEE790F8EE
:102D20009C32032B09D101220DF1050100F0F5FCC5
:102D3000B4E790F89C32032BB0D03146284600F01F
:102D4000C5FC0324AAE700BF38B50446002581214D
:102D500001F089F901212587204601F084F9A4F8C2
:102D600078518221204601F07EF9D4F8D432E5640E
:102D700004EB8303D3F8C0228AB1D3F8C4325B6872
:102D80009847D4F8D432B03354F8230001F04CF90A
:102D9000D4F8D432B03344F82350C4F8BC520020E5
:102DA00038BDF8B504464FF4077001F039F905460F
:102DB00030B9D4F8D432B03344F82300022545E0CA
:102DC0004FF40772002101F0A5F9D4F8D432B033E2
:102DD00044F82350237CC4F8BC52CBBB4FF400739F
:102DE00081210222204601F032F9012121874FF48E
:102DF00000730222204601F02AF901271023032242
:102E0000A4F84E3082210823A4F87871204601F0FE
:102E10001EF9D4F8D432A4F84C7004EB83030026D6
:102E2000D3F8C432C5F804621B689847D5F8042269
:102E3000C5F81462C5F81862002ABFD0257C8DB988
:102E40004FF400733946204601F03AF92846F8BDA0
:102E5000402381210222204601F0F9F80121218737
:102E60004023C6E740233946204601F029F935467C
:102E7000ECE739B1D0F8D43200EB8300C0F8C412CB
:102E80000020704703207047D0F8D432B03350F898
:102E900023302BB1C3F80812C3F81022002070476A
:102EA00003207047D0F8D432B03350F823301BB130
:102EB000C3F804120020704703207047D0F8D432C2
:102EC000B03310B550F823207AB1D2F81442012360
:102ED0006CB9C2F81432D2F81032C362D2F80822A8
:102EE000812101F0E4F8204610BD0320FCE71846DC
:102EF000FAE7D0F8D422B03210B550F8222082B1CF
:102F0000047CD2F8042234B94FF40073012101F09B
:102F1000D7F8204610BD4023012101F0D1F800244C
:102F2000F7E70324F5E778B10023C0F8B832C0F81A
:102F3000C432C0F8D03209B1C0F8B412012380F80D
:102F40009C32027001F026B80320704713B50023AD
:102F50000446ADF8063081B1CB6AC0F8B81223B18F
:102F60000DF106009847C4F8D002D4F8D8320133E6
:102F7000C4F8D832002002B010BD0320FBE701F0F6
:102F80005DB8D0F8B8320BB11B68184718467047C7
:102F900008B5D0F8B8325B689847002818BF0320FE
:102FA00008BD38B5044600F2AA25284600F083FB88
:102FB000012394F8AA12C4F89432B4F8B032C4F8D9
:102FC000983201F01F03012B08D0022B0CD08BB9D3
:102FD00029462046BDE8384000F04EB92946204633
:102FE000BDE8384000F09CBA29462046BDE838408C
:102FF00000F0C5BA204601F08001BDE8384001F07C
:103000003BB870B50446164609BBD0F89432032B82
:103010000CD1D0E9573293420AD99B1A9A42C0F890
:103020005C3128BF1A46314600F099FB002070BD84
:1030300090F89C32032B06D1D0F8B8321B6913B13B
:10304000C0F8D4129847204600F091FBEEE790F8C4
:103050009C32032BEAD1D0F8B8329B69002BE5D023
:103060000022BDE87040C0F8D422184773B504466A
:103070001646002941D1D0F89422022A0FD1D0E976
:103080000752954214D9AA1A0191C261314600F043
:1030900051FB019B1A461946204601F011F894F89D
:1030A000A03213B1002384F8A032002002B070BD1A
:1030B0000ED1826995420BD8D0F89852AA4207D215
:1030C0000A46019100F036FB019BC4F89832E1E713
:1030D00094F89C32032B08D1D4F8B832DB6823B1C2
:1030E0000022C4F8D422204698478021204600F0D0
:1030F000C3FF204600F046FBD1E790F89C32032B3B
:10310000D3D1D0F8B8325B69002BCED00022C0F802
:10311000D42202B0BDE870401847F8B5012380F80A
:103120009C32D0F8B83200210446C0F894124160B5
:10313000C0F8A41280F8A012B3B9002600224025DE
:10314000114601274023204600F081FFA4F8647156
:10315000C4F860512B4600228021204600F077FF02
:10316000A78425623046F8BD5B68002BE5D0984700
:103170000028E2D00326E1E701740020704790F8B0
:103180009C32DBB280F89D32042380F89C32002010
:10319000704790F89C32042B02BF90F89D32DBB24E
:1031A00080F89C320020704708B590F89C22032AD2
:1031B00005D1D0F8B83213B1DB6903B198470020CC
:1031C00008BDD0F8D422AE3208B550F8222042B162
:1031D00090F89C32032B02D1136A23B19847002048
:1031E00000E0032008BD1846FCE7D0F8D422AE3238
:1031F00008B550F8222042B190F89C32032B02D13E
:10320000536A23B19847002000E0032008BD184608
:10321000FCE700207047012208B580F89C22D0F816
:10322000B8220AB9002008BD5268017990470028E9
:10323000F8D00320F7E7002070470020704710B552
:10324000428803789A420AD9047820442344447877
:10325000052C9BB2F6D184788C42F3D110BD0020AE
:10326000FCE710B58021044600F006FF204600214F
:10327000BDE8104000F000BF2DE9F3410D7805F0E6
:103280006005202D04460E4614D0402D12D0002D8E
:1032900040F00A814F78092F00F20681DFE817F02D
:1032A0000B01320104012101040186001600040112
:1032B000F300A200D4F8D432AE33314654F82330B0
:1032C0009B68204602B0BDE8F04118470023ADF8E6
:1032D00006304B881A0A013A062A37D8DFE802F08E
:1032E000041C293636515B00D0F8B4321B68207CB0
:1032F0000DF106019847F288002A00F0FF80BDF822
:1033000006301BB39A4228BF1A46ADF80620014684
:10331000204600F002FA1CE0027CD0F8B83232B944
:103320009B6A0DF10600984702234370E3E7DB6ACE
:10333000F7E7DBB2052B09D8DFE803F0030F13171B
:103340001B1FD0F8B4325B68002BD0D12046FFF7AA
:1033500088FF284602B0BDE8F081D0F8B4329B68FF
:10336000F2E7D0F8B432DB68EEE7D0F8B4321B698C
:10337000EAE7D0F8B4325B69E6E7D0F8B4329B698B
:10338000E2E7037C002BE1D1D0F8B8320DF1060062
:103390005B6B9847AFE7037C002BD7D1D0F8B832EE
:1033A0000DF106001B6B98470723BEE78B88002BA7
:1033B000CCD1CB88002BC9D14E887F2EC6D890F8AF
:1033C0009C32032BC2D0F1B280F89E1200F066FE50
:1033D000204600F0CCF91EB1022384F89C32B8E7F5
:1033E0000123FAE78E784D4F012E3E7003D9FFF787
:1033F00038FF0325ADE790F89C32022B5FFA83F883
:1034000009D0B8F1030F18D0FFF72BFF3978204609
:10341000FFF7BEFDEDE7002E70D001214160FFF700
:10342000B0FD0546204625B1FFF71BFF84F89C82BE
:103430008FE700F09CF90323CFE75EB9022380F801
:103440009C3246603146FFF7A3FD204600F08FF91D
:1034500035467EE74168012950D0C9B2FFF798FD93
:10346000397861602046FFF78CFD0646002845D07C
:103470002046FFF7F6FE21792046FFF789FD02235B
:1034800084F89C32E4E7CA88012A7FF45FAF90F8A1
:103490009C120229CBB205D833B10146002341F872
:1034A000083F35E7032B04D02046FFF7DAFE00255E
:1034B0004FE7011D2CE790F89C32013B022BF3D81B
:1034C000CA88022A7FF442AFD0F8A4320146002B0A
:1034D00014BF0323012341F80C3F00F01EF93D46C1
:1034E00037E74B88012B02D1C4F8A43206E0022B47
:1034F0007FF42CAF8B881B0A80F8A032204600F0A6
:1035000036F926E790F89C32013B022BCCD84B8849
:10351000012B7FF41EAF0023E6E700BFBC010020B3
:1035200070B50B7803F06002402A04460E4601D0C5
:103530005B061FD494F89C32013B022B1AD83179D8
:103540000129204617D8FFF776FE88B9D4F8B8329B
:103550009B686BB1C4F8D4023146204698470546B3
:10356000F3881BB915B9204600F001F9284670BD53
:103570000325F5E72046FFF774FE0025F6E770B552
:103580000B788A880D7903F06003202B04460E46E1
:103590005AD0402B58D09BBB4B78012B42D0032BE9
:1035A00027D06BBB90F89C32022BD9B268D003298C
:1035B00026D105F00F0312F0800F4FF0140202FB2A
:1035C00003036CD09B8CDBB105F07F06013606EB64
:1035D000860600EB860615F07F0006D029462046B9
:1035E00000F006FD003818BF01203060022231468D
:1035F00051E090F89C32022BDAB237D0032A03D084
:103600002046FFF72EFE0BE04B8833B9690604D045
:10361000F38813B9294600F02FFD204600F0A7F8E3
:10362000002070BD90F89C32022BDAB21ED0032A23
:10363000E6D14B88002BF3D16B0602D0294600F06F
:1036400024FD204600F093F829462046FFF7F5FDBB
:103650000028E5D1D4F8B832C4F8D4029B68002B16
:10366000DED031462046BDE8704018476A06C7D014
:10367000294600F001FD8021204600F0FDFCCFE747
:103680006906BDD113064CBF00F1140100F5AA7103
:1036900000230B600222204600F03FF8C0E7B3F899
:1036A0006431002BACD005F07F06142303FB060623
:1036B00006F5AA768FE70B7803704B7843704B883A
:1036C00043808B888380CB88C380704710B580216E
:1036D000044600F0D1FC20460021BDE8104000F077
:1036E000CBBC30B588B10024013823460134055DD8
:1036F000002DFAD1DBB201335B0013800B70032382
:103700004B70022310F8012F02B930BDCA545A1C65
:10371000D2B202338D54DBB2F4E710B51346022265
:10372000C0E90633C0F894220A46002100F0BFFC2D
:10373000002010BD08B513460A46002100F0B7FC72
:10374000002008BD10B513460322C0E95633C0F867
:1037500094220A46002100F0B3FC002010BD08B5F9
:1037600013460A46002100F0ABFC002008BD08B556
:1037700004220023C0F8942219461A4600F097FC50
:10378000002008BD08B505220023C0F89422194680
:103790001A4600F095FC002008BD0000F8B504466C
:1037A000E8B119B9FCF71CFD0146C0B172B61C485E
:1037B0001C4A0578C5F1010352F8236086B952F816
:1037C00025500D44B5F5806F16D90370DBB252F861
:1037D00023300B44B3F5806F0ED9002062B6F8BDDC
:1037E00052F825305D18B5F57D7F05D90C33B3F55A
:1037F000806FF2D80C4C0C2105780C4852F825301B
:1038000003EB85263044661814F8017B00F8017B31
:10381000B442F9D10B4442F825300120DEE700BF65
:10382000E5090020E8090020F04B0008E501002030
:10383000002170B5084600F07FFA10B10024204640
:1038400070BD72B60E4A0F4E1378C3F10105EDB28A
:1038500056F8251021B956F8234014B115701D46AD
:10386000012462B6002CE9D0074836F8251000EB99
:10387000852000F061FA0028E0D146F82500DEE757
:10388000E5090020E8090020E50100202DE9F341C9
:10389000036800219A0604468DF8031015D51F4DC4
:1038A0002B68834209D01E4B1E4A1B681B1A18BF87
:1038B000012352F82300FFF771FF1B4E1B4FDFF867
:1038C000748023689B0609D42C6023680193019BB4
:1038D00063680193019B02B0BDE8F08163688DF8D5
:1038E000033001210DF10300FFF758FF9DF803306D
:1038F0000D2B07D198F80030002BE2D00C480121A5
:10390000FFF74CFF9DF803300A2BDAD13378002BF8
:10391000D7D001213846FFF741FFD2E7C001002090
:10392000DC000020D4000020BD0100205C4A00081B
:10393000984B0008BE010020024B187808B1002205
:103940001A707047E401002008B5FDF765F8034BD5
:103950001860034B00221A7008BD00BFE001002070
:10396000F0090020F0B52249D1E90023ADF2144D51
:10397000002B35D0B3F5805F0CBF39233F23C868D7
:1039800000282FD0B0F5806F2ED0B0F5C06F0CBFDF
:103990004F203F20896849B3B1F5005F0CBF322446
:1039A0003F241449144D0F781449002F14BF0E46BC
:1039B0002E46134F3F78002F08BF2946CDE90261FC
:1039C000CDE900040F4904A800F084FB002104A8FD
:1039D000FFF7E4FE0C4B00221A600DF2144DF0BD0F
:1039E0003823CCE74E20D5E74520D3E73124D8E76C
:1039F000C4010020BE010020614A00085E4A0008A0
:103A0000BD010020654A0008C001002070B51E4BB2
:103A10001E4E1A781E4B1F4C53F82230336000257F
:103A200054F8040BFEF720FA30BB54F8040C31466E
:103A3000FEF74CFA00BB54F8043C1A6922F4904299
:103A40001A615A6922F02A025A61DA6842F4005275
:103A5000DA6003F10C0252E8002F42F0200203F179
:103A60000C0040E800210029F3D1012335B90125DC
:103A7000002BD5D1002070BD0023F7E7002BF9D033
:103A8000BDE87040FFF76EBF92000020C401002027
:103A900094000020DC000020044AD16803468142E3
:103AA00016BF01200020D360704700BFC401002072
:103AB000044A91680346814216BF012000209360AA
:103AC000704700BFC401002000B5ADF2044D0749A6
:103AD000684600F053FB00216846FFF75FFE044B89
:103AE00000221A600DF2044D5DF804FBA34A0008A1
:103AF000C001002010B508B9002010BD322817D829
:103B00002A2819D92B38072816D8DFE800F01F1506
:103B10002F151515414510280ED8DFE800F0490D86
:103B2000360D0D0D0D0D0D400D2D330D0D0D4B00F2
:103B30006338C3B2102BEED900212248FFF72EFEC6
:103B40000446FFF7C1FF2040C0B2D6E71E4A1378F3
:103B50000E2BD1D8013313701A480021FFF71EFE37
:103B60000028C9D0BDE81040FFF750BF164A1378AF
:103B7000002BC1D0013BEEE70020FFF78DFF0028AE
:103B8000EAD1B9E74FF4C060F7E74FF48060F4E79B
:103B90000020FFF78DFFF2E74FF40050F9E70B4AE2
:103BA000137883F001031370BDE81040FFF7DABE0D
:103BB000074AF5E703480021FFF7F0FD00289BD0F6
:103BC000F2E700BF974B000892000020BE010020E2
:103BD000BD01002080B51A481A4E1B4D1B4FFEF741
:103BE000E7F9FFF713FF33781BB9194AC2E900332D
:103BF000F9E72C78E4B9FCF70FFF3B68C01A64289A
:103C0000F1D921461348FFF7C9FD21461248FFF7B5
:103C1000C5FDFFF759FF21460F48FFF7BFFDFFF72E
:103C2000A1FE0D482146FFF7B9FD01232B70DAE70D
:103C3000FFF7FEFDFFF780FEFFF75CFFD3E700BF55
:103C4000C4010020D00C0020F0090020E001002079
:103C5000E80900209A4B0008974B000808B50F4967
:103C60000F480022FFF75FF908B1FCF7EBFD0D49A3
:103C70000B48FFF76BF908B1FCF7E4FD0A49084867
:103C8000FFF7F7F808B1FCF7DDFD0548FFF777F916
:103C900018B1BDE80840FCF7D5BD08BDF80000200C
:103CA000F40900200C000020E400002000207047F0
:103CB00038B5074D014604462846FFF7F3F8284675
:103CC000FFF717F9034B22781A70002038BD00BFA8
:103CD000F4090020E4010020202808B503D000F0FA
:103CE000DF00022801D1FFF72FFE002008BD0000F1
:103CF00010B5034B00241C70FFF726FE204610BDB4
:103D0000D00C002010B5084B084C01221A70FFF7A8
:103D10001BFE002206492046FFF7B6F8054920465B
:103D2000FFF7C0F8002010BDD00C0020F4090020DF
:103D3000D1100020D10C002010B50B4CD4F8BC32AF
:103D4000D3F814320A4653B950B151B10146204656
:103D5000FFF79AF82046BDE81040FFF7AFB8012002
:103D600010BD0846FCE700BFF409002012230148FB
:103D70000B80704714010020042301480B8070471A
:103D800028010020002370B54D1C1E46040FB0F121
:103D9000204F34BF3034373401F8134005F8136036
:103DA0000133DCB2A2424FEA0010EFD870BD000030
:103DB0001A2310B50B800A4BD3F8100AD3F8182A2F
:103DC00080180AD0D3F8144A06490822FFF7DAFF10
:103DD000042210312046FFF7D5FF034810BD00BF75
:103DE0000070FF1F2E0100202C01002010B5044C94
:103DF00004480A462146FFF774FC204610BD00BF68
:103E0000D4140020FD4B000810B5044C04480A46A9
:103E10002146FFF766FC204610BD00BFD4140020E9
:103E2000104C000810B5044C04480A462146FFF720
:103E300058FC204610BD00BFD4140020264C0008BA
:103E400010B5044C04480A462146FFF74AFC2046B8
:103E500010BD00BFD4140020314C000830B504461A
:103E600089B01422002103A800F054F92368B3F1AB
:103E7000A04F2ED1184C194800250195236B43F013
:103E800001032363236B03F0010301934FF4C0523A
:103E9000019B0223CDE9032303210A23CDE9061365
:103EA00003A9FCF739FE636B43F08003636302955B
:103EB000636C43F480436364636C03F48043029354
:103EC00043202A462946029BFCF7D2FD4320FCF7FB
:103ED00001FE09B030BD00BF0038024000000240C2
:103EE00000F2C441D0F80805FFF75BB8242303FBB8
:103EF0000103D0F80805D3F88C22FFF782B82423F9
:103F000003FB0103D0F80805DA6CFFF7AFB8D0F86F
:103F10000805FFF749B9C368022B10B5044601D064
:103F2000FCF790FCD4F808050121FFF725F9D4F837
:103F30000805BDE81040FFF7F0B8000010B50446D2
:103F4000D0F80805FFF71BF92268D2F8003E43F0CD
:103F50000103C2F8003E236A23B1034A136943F008
:103F60000603136110BD00BF00ED00E0D0F80805A6
:103F7000FFF70FB9D0F80805FFF737B9D0F80805F3
:103F8000FFF71FB9D0F80805FFF743B9D0F80805C7
:103F9000FFF741B908B5027832BB144B0421C3F8CE
:103FA0000805C0F8C8324FF0A040C3E90001022163
:103FB0001846C3E90312C3E90612C3E90822C3E99C
:103FC0000B22FCF771FE08B1FCF73CFC802107488E
:103FD000FDF7BEFB402200210448FDF799FB034892
:103FE00080220121FDF794FB002008BDD41600209B
:103FF00011F0800FD0F8C8324FF024021BBF01F03F
:104000007F0102FB013302FB013393F83E0008BF3E
:1040100093F87E027047D0F8C802FCF788BF000012
:1040200000487047E01B00207047000003289ABF3B
:10403000014B185C032070473F4C000808B5D0F8CE
:10404000C802FCF7B6FEBDE80840FFF7EFBF10B5A9
:104050001446D0F8C8021A462346FCF7DDFEBDE838
:104060001040FFF7E3BF08B5D0F8C802FCF70CFF1B
:10407000BDE80840FFF7DABF08B5D0F8C802FCF782
:104080007EFFBDE80840FFF7D1BF08B5D0F8C802F1
:10409000FCF7AFFFBDE80840FFF7C8BF08B5D0F890
:1040A000C802FCF7A5FEBDE80840FFF7BFBF08B592
:1040B000D0F8C802FCF743FFBDE80840FFF7B6BFE1
:1040C00008B5D0F8C802FCF70EFFBDE80840FFF7BE
:1040D000ADBF00000EB400B59CB01DAB02900690C1
:1040E0006FF00041094807910491094953F8042BE6
:1040F00005910068019302A900F09AF9029B002241
:104100001A701CB05DF804EB03B0704794010020F6
:104110000802FFFF02440346934200D1704703F8B0
:10412000011BF9E7014B1868704700BF940100209C
:1041300070B50D4D0D4C641BA4100026A64209D18C
:104140000B4D0C4C00F072FC641BA4100026A64220
:1041500005D170BD55F8043B98470136EEE755F898
:10416000043B98470136F2E7804C0008804C000879
:10417000804C0008844C000870477047034611F8D3
:10418000012B03F8012B002AF9D1704737B500291C
:1041900044D051F8043C0190002BA1F10404B8BFB5
:1041A000E41800F0DFF81E4A0198136833B9636021
:1041B000146003B0BDE8304000F0DAB8A34208D97B
:1041C000256861198B4201BF19685B684919216034
:1041D000EDE71A465B680BB1A342FAD9116855188E
:1041E000A5420BD1246821445418A3421160E0D1A8
:1041F0001C685B6853600C441460DAE702D90C2336
:104200000360D6E7256861198B4204BF19685B68B3
:10421000636004BF491921605460CAE703B030BD30
:10422000401F002070B50E4E0C463168054611B98E
:1042300000F0A6FB30602146284600F0A1FB431C9D
:104240000AD0C41C24F00304A04207D0211A284637
:1042500000F096FB013001D14FF0FF34204670BDD5
:10426000441F00202DE9F843CD1C25F00305083537
:104270000C2D38BF0C25002D074601DBA94205D9BE
:104280000C233B6000263046BDE8F883DFF8D08081
:1042900000F068F8D8F800301C465CBB2946384668
:1042A000FFF7C0FF431C044655D1D8F8004026460E
:1042B000002E45D1002C48D023683146384604EB07
:1042C000030900F05DFB81453FD121686D1A294645
:1042D0003846FFF7A7FF013037D023682B4423600F
:1042E000D8F80030002B38D05A68A2422BD10022D7
:1042F0005A600FE02268521B1FD40B2A17D961198C
:10430000A342256018BF5960636808BFC8F8001051
:1043100062514B60384604F10B0600F029F826F094
:104320000706231DF21AAED09B1BA350ABE7A34296
:104330006268DDD1C8F80020ECE723466468ACE78A
:1043400034467668B4E71346CCE70C233B60384626
:1043500000F00EF897E72560DCE75B60FFDE00BF4A
:10436000401F00200148FFF707BF00BF3C1F00208F
:104370000148FFF702BF00BF3C1F00202DE9F047B6
:104380008E681F46BE420B6882460C4690462CD86B
:104390008A8912F4906F26D06569096905EB450595
:1043A000A3EB010905EBD5757B1C4B446D109D42B9
:1043B00038BF1D46530527D52946FFF753FF06464C
:1043C00060B321694A4600F0EBFAA38923F49063B5
:1043D00043F08003A381266165614E44A5EB090586
:1043E0002660A5603E46BE4200D93E462068324661
:1043F000414600F0ABFAA3689B1BA36023683344DB
:1044000023600020BDE8F0872A4600F0D7FA064670
:104410000028E0D121695046FFF7B8FE0C23CAF806
:104420000030A38943F04003A3814FF0FF30E9E758
:104430002DE9F04F98468B891B069DB007460D4627
:1044400014460ED50B6963B94021FFF70BFF2860B6
:10445000286120B90C233B604FF0FF30D0E04023AF
:104460006B610023099320238DF82930CDF80C804F
:104470003023DFF8A4818DF82A304FF0010923465C
:104480009A4613F8012B0AB1252AF9D1BAEB040B8D
:104490000BD05B46224629463846FFF76FFF0130B6
:1044A00000F0A980099A5A4409929AF80030002B2A
:1044B00000F0A18000234FF0FF32CDE905230AF17F
:1044C000010A049307938DF853301A93544605223A
:1044D00014F8011B5048FBF78BFE049AD8B9D0069C
:1044E00044BF20238DF85330110744BF2B238DF890
:1044F00053309AF800302A2B15D0079A54460020E2
:104500004FF00A0C214611F8013B303B092B4DD9E5
:10451000B0B1079214E0A0EB080309FA03F31343C8
:104520000493A246D2E7039B191D1B680391002B3D
:10453000BBBF5B4242F0020207930793B8BF0492ED
:1045400023782E2B0CD163782A2B34D1039B1A1D90
:104550001B680392002BB8BF4FF0FF330234059362
:10456000DFF8C4A0217803225046FBF741FE38B1A2
:10457000049BA0EB0A0040228240134301340493C1
:1045800014F8011B25488DF828100622FBF730FE91
:10459000002838D0224B1BBB039B073323F00703B3
:1045A00008330393099B3344099368E70CFB0232F9
:1045B0000C460120A6E700230134059319464FF06D
:1045C0000A0C204610F8012B303A092A03D9002B97
:1045D000C6D00591C4E70CFB012104460123F0E796
:1045E00003AB00932A460F4B04A93846AFF3008073
:1045F000421C0646D6D1AB895B063FF52DAF099824
:104600001DB0BDE8F08F03AB00932A46054B04A90B
:10461000384600F079F8EBE7434C00084D4C0008B1
:10462000000000007D430008494C00082DE9F047D8
:10463000164699468A680B69DDF820809342B8BF18
:104640001346336091F8432007460C460AB1013304
:1046500033602368990642BF3368023333602568AC
:1046600015F0060506D104F1190AE36832689B1AB1
:10467000AB4226DC94F84320131E226818BF0123A6
:1046800092062BD404F1430249463846C047013014
:104690001ED02368226903F00603042B02BFE568DD
:1046A0003368ED1AA3680CBF25EAE575002593422F
:1046B000C4BF9B1AED1800261A34B5421AD1002047
:1046C00008E00123524649463846C047013003D12D
:1046D0004FF0FF30BDE8F0870135C6E7E1185A1CFE
:1046E000302081F84300224494F8451082F84310AA
:1046F0000233C7E70123224649463846C047013006
:10470000E6D00136D9E700002DE9FF470F7E0C9D6A
:10471000782F914680460C469A4601F1430207D80D
:10472000622F0AD8002F00F0D480582F00F0C080EC
:1047300004F1420584F842703AE0A7F16303152BB7
:10474000F6D801A151F823F0A1470008B5470008A9
:104750003147000831470008314700083147000859
:10476000B5470008314700083147000831470008C5
:1047700031470008B9480008E147000873480008BD
:104780003147000831470008DB480008314700087E
:10479000E147000831470008314700087B4800081E
:1047A0002B681A1D1B682A6004F1420584F8423008
:1047B00001239FE020682B68070603F104012960AC
:1047C00001D51E6803E04606FBD5B3F90060002E54
:1047D00003DA2D23764284F843305A480A2312E044
:1047E0002B682068191D2960050601D51E6802E0A6
:1047F0004106FBD51E8853486F2F0CBF08230A23A0
:10480000002184F843106568A560002DA2BF2168CF
:1048100021F0040121600EB9002D4BD01546B6FBE6
:10482000F3F103FB1167C75D05F8017D3746BB4215
:104830000E46F4D9082B0BD12368DE0708D523696F
:1048400061689942DEBF302305F8013C05F1FF3570
:10485000521B2261CDF800A04B4603AA21464046D8
:10486000FFF7E4FE01304AD14FF0FF3004B0BDE85D
:10487000F087236843F0200323603348782784F8C7
:104880004570236829681F0651F8046B02D45F063F
:1048900048BFB6B2DF0748BF43F02003296048BFD6
:1048A00023601EB9236823F0200323601023A7E7A9
:1048B0002448E4E71546BDE72B6826686169181DA2
:1048C000286035061B6801D5196002E07006FBD52B
:1048D0001980002323611546BCE72B681A1D2A6046
:1048E0001D68626800212846FBF782FC08B1401B66
:1048F000606063682361002384F84330AAE723697A
:104900002A4649464046D0470130ADD023689B0730
:1049100013D4E068039B9842B8BF1846A6E701236A
:10492000324649464046D04701309DD00135E368C4
:1049300003995B1AAB42F2DCEBE7002504F11906A0
:10494000F5E700BF544C0008654C0008884210B5DC
:1049500001EB020402D98442234607D8431EA14238
:1049600008D011F8012B03F8012FF8E702440146A3
:104970008A4200D110BD13F8014D02F8014DF7E74E
:1049800038B5064D0023044608462B60FBF7A6FF0A
:10499000431C02D12B6803B1236038BD381F0020AF
:1049A0000A44914200F1FF3300D1704710B511F86D
:1049B000014B03F8014F9142F9D110BD2DE9F041AF
:1049C000804614460E4621B9BDE8F0411146FFF776
:1049D00049BC2AB9FFF7DAFB25462846BDE8F08135
:1049E00000F01BF88442074602D8B4EB500F12D8EF
:1049F00021464046FFF736FC05460028EDD0BC4274
:104A00002246314628BF3A46FFF7CAFF31464046A4
:104A1000FFF7BCFBE1E73546DFE751F8043C181F20
:104A2000002BBCBF0B58C01870470000F8B500BF82
:104A3000F8BC08BC9E467047F8B500BFF8BC08BC7F
:044A40009E467047D7
:104A4400000000000000000001020304060708093A
:104A540000000000010203040D006F6E006F666623
:104A6400001B5B306D1B5B33336D53657474696E6F
:104A740067733A20256C752042642C2025632563D6
:104A840025632C20696D706C69636974204C463A07
:104A940025732043523A25730D0A1B5B306D001BAE
:104AA4005B306D1B5B33336D2B2F2D2020202E2E7E
:104AB4002E20696E6372656173652F646563726528
:104AC4006173652062617564726174650D0A6E2F8D
:104AD4006F2F65202E2E2E207365742070617269ED
:104AE400747920746F206E6F6E652C206F6464205F
:104AF400726573702E206576656E0D0A312F322033
:104B040020202E2E2E207365742073746F70206203
:104B14006974207175616E7469747920746F2031C1
:104B240020726573702E20320D0A6C2F63202020B2
:104B34002E2E2E20696D706C69636974204C46209A
:104B4400616674657220435220726573702E20432F
:104B540052206166746572204C460D0A7320202031
:104B640020202E2E2E2073686F772073657474694D
:104B74006E67732026207374617475730D0A682F31
:104B84003F2020202E2E2E2068656C700D0A1B5BA2
:104B9400306D000D0A001B5B306D1B5B306D1B5BC1
:104BA40033336D0C0D54696E79436F6D4D6F6E69BF
:104BB400746F722056312E300D0A28632920496EF5
:104BC40067484B20496E67656E69657572627565E5
:104BD400726F204865696B6F204B756573746572DD
:104BE4000D0A1B5B306D001B5B376D001B5B3331A3
:104BF4003B376D201B5B306D0053544D6963726FFE
:104C0400656C656374726F6E6963730053544D33DE
:104C140032205669727475616C20436F6D506F72E7
:104C2400740043444320436F6E6669670043444302
:104C340020496E7465726661636500000301032395
:104C44002D302B2000686C4C006566674546470094
:104C540030313233343536373839414243444546AE
:104C64000030313233343536373839616263646544
:044C740066000000D6
:084C780048B6FF7F01000000B7
:044C8000C501000862
:044C8400A101000882
:104C88000024F4000100000010000000A32D00081B
:104C9800492D0008412C000800000000C92A00081E
:104CA800D92B0008A12B000800000000000000001C
:104CB80000000000592B00080D2B0008552B000898
:104CC800012B000809024300020100C03209040058
:104CD8000001020201000524001001052401000161
:104CE80004240202052406000107058203080010B7
:104CF80009040100020A0000000705010240000043
:104D080007058102400000000A060002000000407A
:104D18000100050058020000B00400000807000068
:104D280060090000C012000080250000004B000050
:104D3800807000000096000000E10000002C0100D7
:104D480000C20100008403000008070000CA080030
:104D580000100E00924B0008EB4B000800100140B9
:104D680000440040053D0008F13C0008D93C00081B
:104D7800B13C0008AD3C00086D3D0008793D0008D5
:104D8800ED3D0008093E0008B13D0008253E000839
:104D9800413E00081201000202020040830440570D
:104DA8000002010203010000040309041A030000C1
:104DB80000000000000000000000000000000000EB
:104DC800000000000000000000000000001E00209D
:104DD800681E0020D01E0020000000000000000017
:104DE80000000000000000000000000000000000BB
:104DF80000000000000000000000000000000000AB
:104E0800000000000000000000000000000000009A
:084E1800000000004801002029
:0400000508000931B5
:00000001FF
